:020000040800F2
:100000000000022061080008050600080506000837
:1000100005060008050600080506000800000000A7
:10002000000000000000000000000000C1360008D1
:100030000506000800000000BD370008253800084C
:100040000506000805060008050600080506000864
:100050000506000805060008050600080506000854
:100060000506000805060008050600080506000844
:100070000506000805060008050600080506000834
:100080000506000805060008050600080506000824
:100090000506000805060008050600080506000814
:1000A0000506000805060008050600080506000804
:1000B00005060008050600080506000805060008F4
:1000C00005060008050600080506000805060008E4
:1000D00005060008050600080506000805060008D4
:1000E00005060008050600080506000805060008C4
:1000F00005060008050600080506000805060008B4
:1001000005060008050600080506000805060008A3
:100110000506000805060008050600080506000893
:100120000506000805060008050600080506000883
:100130000506000805060008050600080506000873
:100140000506000805060008050600080506000863
:100150000506000805060008050600080506000853
:100160000506000805060008050600080506000843
:100170000506000805060008050600080506000833
:08018000050600080506000851
:1001900010B5054C237833B9044B13B10448AFF3C1
:1001A00000800123237010BD4C09002000000000D6
:1001B000083B0008084B10B51BB108480849AFF3CD
:1001C00000800848036803B910BD074B002BFBD023
:1001D000BDE81040184700BF00000000083B0008C1
:1001E000500900204809002000000000154B002B9A
:1001F00008BF134B9D46A3F5803A00218B460F465E
:100200001348144A121A00F063F80F4B002B00D069
:1002100098470E4B002B00D0984700200021040087
:100220000D000D48002802D00C4800F013F900F032
:1002300027F82000290000F0BBF900F011F800BFFA
:1002400000000800000000000000000000000000A6
:100250004C090020B80A0120550400086104000878
:1002600008B50021044600F08BF8044B1868C36BF6
:1002700003B19847204601F0EDFA00BFF03A0008BC
:1002800070B50F4E0F4D761BB61018BF002405D069
:10029000013455F8043B9847A642F9D10A4E0B4D5C
:1002A000761B03F033FCB61018BF002406D00134CF
:1002B00055F8043B9847A642F9D170BD70BD00BF08
:1002C0002C3B00082C3B0008303B00082C3B00086E
:1002D00070B4840746D0541E002A41D0CDB20346E4
:1002E00002E0621EE4B3144603F8015B9A07F8D1FA
:1002F000032C2ED9CDB245EA05250F2C45EA05453C
:1003000019D903F110022646103E0F2E42F8105C58
:1003100042F80C5C42F8085C42F8045C02F11002FE
:10032000F2D8A4F1100222F00F0204F00F041032F0
:10033000032C13440DD91E462246043A032A46F8DC
:10034000045BFAD8221F22F003020432134404F0A3
:1003500003042CB1C9B21C4403F8011BA342FBD116
:1003600070BC704714460346C2E700BF024B13B18E
:10037000024800F06FB870470000000061040008F8
:100380002DE9F04F314B83B01B68009303F5A47344
:1003900081460E460193009BD3F8487127B3DDF8E0
:1003A00004A07C68651E0ED4013407EB84044FF072
:1003B0000008E6B1D4F80031B34218D0013D6B1CFF
:1003C000A4F10404F5D1224B73B17B68002B36D124
:1003D0003B68002B34D03846CAF80030AFF30080B9
:1003E000DAF80070002FDCD103B0BDE8F08F7B6835
:1003F0002268013BAB420CBF7D60C4F80080002A3C
:10040000DCD0D7F88831D7F804B00121A9401942CF
:1004100008D190477B685B45BDD1DAF80030BB421C
:10042000CCD0B8E7D7F88C31194204D14846D4F87B
:1004300080109047EEE7D4F880009047EAE73B68E9
:10044000BA461F46002FACD1CEE700BFF03A0008F5
:1004500000000000014600200246034600F016B8E6
:1004600038B5084B084DED1AAC1018BFED1805D083
:10047000013C55F8043D9847002CF9D1BDE83840BF
:1004800003F04ABB00000000000000002DE9F04727
:10049000254C2568D5F84841064688469246994637
:1004A000CCB360681F2818DC431C7EB104EB8005C8
:1004B0000121C5F888A0D4F8887101FA00F2174329
:1004C000022EC4F88871C5F808911ED0023063600E
:1004D00044F820800020BDE8F087144B03B34FF4AC
:1004E000C870AFF300800446D0B1D5F8483100277A
:1004F00080E88800C5F8484138460123C4F888716F
:10050000C4F88C71002EE1D0D0E7D4F88C110A43E6
:10051000C4F88C21DAE705F5A674C5F84841C0E7B0
:100520004FF0FF30BDE8F087F03A0008000000000F
:1005300080B584B000AF786000F0DEF90023FB6086
:100540000EE0FB6803F00103002B0CBF0123002326
:10055000DBB2F868194600F0EFF9FB680133FB6085
:1005600000F0E2F90246FB689A42EADC42F21070BF
:1005700001F008FB0023FB600EE0FB6803F00103C1
:10058000002B14BF01230023DBB2F868194600F0EA
:10059000D3F9FB680133FB6000F0C6F90246FB6843
:1005A0009A42EADC4FF47A7001F0ECFAC6E700BF39
:1005B00080B586B006AF00230093094B019300235A
:1005C00002930023039300230493064806494FF443
:1005D0007A72002301F05AF901F080FDFEE700BFB6
:1005E000B40A012031050008F43A0008303B000845
:1005F00000000020440900204C090020B80A012016
:1006000000F000B8FEE7000080B500AF154A154BBA
:10061000D3F8883043F47003C2F88830124A124B82
:100620001B6843F0010313600F4B00229A600E4ACF
:100630000D4B1B6823F0847323F4803313600A4B43
:100640000A4A5A60084A084B1B6823F48023136047
:10065000054B0022DA6000F089F8024B044A9A60E8
:1006600080BD00BF00ED00E00038024010300024E3
:100670000000000880B487B000AF00233B61002376
:100680007B610223FB600023BB6002237B60324B53
:100690009B6803F00C033B613B69042B07D0082BDC
:1006A00009D0002B3FD12D4B2D4A1A603FE02B4B38
:1006B0002C4A1A603BE0284B5B6803F480039B0DD7
:1006C000BB60254B5B6803F03F037B60BB68002B7E
:1006D0000DD0244A7B68B2FBF3F21F4B596847F6F2
:1006E000C0730B409B0903FB02F37B610CE01C4AC7
:1006F0007B68B2FBF3F2184B596847F6C0730B40A6
:100700009B0903FB02F37B61134B5B6803F44033EB
:100710001B0C01335B00FB607A69FB68B2FBF3F3EF
:100720000E4A136003E00D4B0D4A1A6000BF0A4BDE
:100730009B6803F0F0031B090B4AD35CDBB23B61FF
:10074000064B1A683B6922FA03F3044A13601C370C
:10075000BD465DF8047B7047003802403404002039
:100760000024F40000127A003804002080B483B022
:1007700000AF00237B6000233B60354A344B1B688D
:1007800043F480331360324B1B6803F400333B6047
:100790007B6801337B603B68002B03D17B68B3F53A
:1007A000A06FF0D12A4B1B6803F40033002B02D05A
:1007B00001233B6001E000233B603B68012B42D1F9
:1007C000234A234B1B6C43F080531364214A214B73
:1007D0001B6843F4804313601D4A1D4B9B68936064
:1007E0001B4A1B4B9B6843F400439360184A184B09
:1007F0009B6843F4A0539360154B174A5A60144A00
:10080000134B1B6843F08073136000BF104B1B68D1
:1008100003F00073002BF9D0104B40F205621A6010
:100820000B4A0B4B9B6823F003039360084A084B69
:100830009B6843F00203936000BF054B9B6803F085
:100840000C03082BF9D10C37BD465DF8047B7047CB
:10085000003802400070004008544007003C02404D
:1008600080B582B000AF144B7B60144B3B607A685C
:100870003B689A420CD007E03B681A1D3A607A68E0
:10088000111D796012681A603B680D4A9342F3D3D8
:100890000C4B3B6004E03B681A1D3A6000221A6072
:1008A0003B68094A9342F6D3FFF7AEFEFFF7E8FC38
:1008B000FFF77EFEFEE700BF303B0008000000208F
:1008C000440900204C090020B80A012080B582B0FC
:1008D00000AF7860786800F073F97868002100F064
:1008E0009DF97868002100F0B9F97868002100F0DE
:1008F000D7F90837BD4680BD80B582B000AF002370
:100900007B6009E0074A7B6852F823301846FFF7FE
:10091000DDFF7B6801337B607B68032BF2DD0837EA
:10092000BD4680BD4804002080B400AF04231846B3
:10093000BD465DF8047B704780B584B000AF786039
:100940000B46FB707B68002B02DB7B68032B01DD11
:10095000002317E00D4A7B6852F82330FB60FB78D8
:10096000002B07D0F86800F0FDF9F868012100F0CD
:1009700033F906E0F86800F0E3F9F868012100F0C7
:100980002BF9012318461037BD4680BD48040020CE
:1009900080B582B000AF78607B681B79184600F0A4
:1009A00029FA0837BD4680BD80B483B000AF7860B7
:1009B00039607B681B687A68126811683A68D243AC
:1009C0000A401A600C37BD465DF8047B704700BFD3
:1009D00080B483B000AF786039607B681B687A6848
:1009E000126811683A680A431A600C37BD465DF810
:1009F000047B704780B483B000AF786039607B6857
:100A00001B687A68126851683A68D2430A405A6093
:100A10000C37BD465DF8047B704700BF80B483B0DF
:100A200000AF786039607B681B687A68126851682B
:100A30003A680A435A600C37BD465DF8047B70473C
:100A400080B483B000AF786039607B681B687A68D7
:100A5000126891683A68D2430A409A600C37BD46E2
:100A60005DF8047B704700BF80B483B000AF78604E
:100A700039607B681B687A68126891683A680A4333
:100A80009A600C37BD465DF8047B704780B483B034
:100A900000AF786039607B681B687A681268D1683B
:100AA0003A68D2430A40DA600C37BD465DF8047BF1
:100AB000704700BF80B483B000AF786039607B6856
:100AC0001B687A681268D1683A680A43DA600C37A2
:100AD000BD465DF8047B704780B483B000AF78609A
:100AE0007B681B681B6918460C37BD465DF8047BA4
:100AF000704700BF80B483B000AF786039607B6816
:100B00001B687A68126851693A680A435A610C375F
:100B1000BD465DF8047B704780B485B000AFF860D7
:100B2000B9607A60FB681B68FA681268B9680831B6
:100B300052F821107A68D2431140BA68083243F85B
:100B400022101437BD465DF8047B704780B485B031
:100B500000AFF860B9607A60FB681B68FA681268D9
:100B6000B968083152F821107A681143BA6808321E
:100B700043F822101437BD465DF8047B704700BF70
:100B800080B483B000AF786039607B681B683A68D6
:100B900092B21A830C37BD465DF8047B704700BFE4
:100BA00080B483B000AF786039607B681B683A68B6
:100BB00092B25A830C37BD465DF8047B704700BF84
:100BC00080B582B000AF78607B681B681846FFF77D
:100BD000DFFE0837BD4680BD80B584B000AF7860C9
:100BE0000B46FB707B6819687B681B795B000322EE
:100BF00002FA03F308461946FFF7D6FEFA787B6837
:100C00001B795B0002FA03F3FB607B681B681846E4
:100C1000F968FFF7DDFE1037BD4680BD80B584B0B2
:100C200000AF78600B46FB707B681A687B681B79A5
:100C3000194601238B4010461946FFF7DBFEFB786F
:100C40007A6812799340FB607B681B681846F968E4
:100C5000FFF7E4FE1037BD4680BD00BF80B584B00D
:100C600000AF78600B46FB707B6819687B681B7966
:100C70005B00032202FA03F308461946FFF7E0FE81
:100C8000FA787B681B795B0002FA03F3FB607B68F0
:100C90001B681846F968FFF7E7FE1037BD4680BDB0
:100CA00080B584B000AF78600B46FB707B681A6833
:100CB0007B681B79194603238B4010461946FFF7C2
:100CC000E5FEFB787A6812799340FB607B681B68CD
:100CD0001846F968FFF7EEFE1037BD4680BD00BF2D
:100CE00080B586B000AF78600B46FB707B681B79DF
:100CF00003F007039B007B617B681B79DB08DBB299
:100D000003F001033B617B6819680F227B6902FADB
:100D100003F3084639691A46FFF7FEFEFB7803F035
:100D20000F027B6902FA03F3FB607B681B681846BD
:100D30003969FA68FFF70AFF1837BD4680BD00BF62
:100D400080B582B000AF78607B681A687B681B79D9
:100D5000194601238B4010461946FFF721FF08373B
:100D6000BD4680BD80B582B000AF78607B681A68F0
:100D70007B681B79194601238B4010461946FFF703
:100D8000FFFE0837BD4680BD80B584B000AF7860F7
:100D90007B681B681B685B69FB81FB897A68127939
:100DA000134103F00103002B03D07868FFF7C8FF5D
:100DB00002E07868FFF7D6FF1037BD4680BD00BF60
:100DC00080B584B000AF78607B681B681846FFF779
:100DD00083FE0346FB81FB897A681279134103F095
:100DE0000103002B14BF01230023DBB21846103788
:100DF000BD4680BD80B483B000AF0346FB71FB7974
:100E0000382B00F2068201A252F823F0F10E0008FE
:100E1000FF0E00080D0F00081B0F0008290F000827
:100E2000370F0008450F0008530F0008610F000836
:100E30006F0F00087D0F00088B0F0008990F000846
:100E4000A70F0008B50F0008C30F0008D10F000856
:100E5000DF0F0008ED0F0008FB0F00080910000865
:100E60001710000825100008331000084110000872
:100E70004F1000085D1000086B1000087910000882
:100E80008710000895100008A3100008B110000892
:100E9000BF100008CD100008DB100008E9100008A2
:100EA000F7100008051100081311000821110008AF
:100EB0002F110008411100084F1100085D110008B2
:100EC0006B110008791100088711000895110008BE
:100ED000A3110008B1110008BF110008CD110008CE
:100EE000DB110008E9110008F711000805120008DD
:100EF000924A924B1B6B43F00103136389E18F4AC3
:100F00008E4B1B6B43F00203136382E18B4A8B4BC6
:100F10001B6B43F0040313637BE1884A874B1B6B15
:100F200043F00803136374E1844A844B1B6B43F062
:100F3000100313636DE1814A804B1B6B43F0200368
:100F4000136366E17D4A7D4B1B6B43F040031363E3
:100F50005FE17A4A794B1B6B43F08003136358E1DE
:100F6000764A764B1B6B43F48073136351E1734AEB
:100F7000724B1B6B43F4805313634AE16F4A6F4B10
:100F80001B6B43F40013136343E16C4A6B4B1B6B05
:100F900043F4800313633CE1684A684B1B6B43F0E6
:100FA0000073136335E1654A644B1B6B43F00053D8
:100FB00013632EE1614A614B1B6B43F08043136363
:100FC00027E15E4A5D4B5B6B43F00103536320E115
:100FD0005A4A5A4B5B6B43F01003536319E1574A6B
:100FE000564B5B6B43F02003536312E1534A534B60
:100FF0005B6B43F0400353630BE1504A4F4B5B6B19
:1010000043F08003536304E14C4A4C4B9B6B43F029
:1010100001039363FDE0494A484B1B6C43F0010315
:101020001364F6E0454A454B1B6C43F0020313641E
:10103000EFE0424A414B1B6C43F004031364E8E0C9
:101040003E4A3E4B1B6C43F008031364E1E03B4A0D
:101050003A4B1B6C43F010031364DAE0374A374B0A
:101060001B6C43F020031364D3E0344A334B1B6CF6
:1010700043F040031364CCE0304A304B1B6C43F028
:1010800080031364C5E02D4A2C4B1B6C43F4807322
:101090001364BEE0294A294B1B6C43F400631364BC
:1010A000B7E0264A254B1B6C43F480431364B0E041
:1010B000224A224B1B6C43F400431364A9E01F4AED
:1010C0001E4B1B6C43F400331364A2E01B4A1B4B02
:1010D0001B6C43F4802313649BE0184A174B1B6C72
:1010E00043F40023136494E0144A144B1B6C43F440
:1010F000801313648DE0114A104B1B6C43F40013F2
:10110000136486E00D4A0D4B1B6C43F4800313649B
:101110007FE00A4A094B1B6C43F40003136478E038
:10112000064A064B1B6C43F00073136471E0034ADC
:10113000024B1B6C43F0806313646AE0003802408A
:10114000364A364B1B6C43F08053136461E0334ADC
:10115000324B1B6C43F0005313645AE02F4A2F4B61
:101160005B6C43F00103536453E02C4A2B4B5B6CE4
:1011700043F0020353644CE0284A284B5B6C43F075
:101180001003536445E0254A244B5B6C43F0200375
:1011900053643EE0214A214B5B6C43F480735364FB
:1011A00037E01E4A1D4B5B6C43F48073536430E0A0
:1011B0001A4A1A4B5B6C43F48073536429E0174A54
:1011C000164B5B6C43F40063536422E0134A134BE9
:1011D0005B6C43F4805353641BE0104A0F4B5B6C11
:1011E00043F48043536414E00C4A0C4B5B6C43F4AF
:1011F000803353640DE0094A084B5B6C43F40033C1
:10120000536406E0054A054B5B6C43F4802353644A
:1012100000BF0C37BD465DF8047B704700380240C4
:1012200080B483B000AF0346FB71FB79382B00F22A
:10123000068201A252F823F01D1300082B130008A8
:1012400039130008471300085513000863130008FA
:10125000711300087F1300088D1300089B1300080A
:10126000A9130008B7130008C5130008D31300081A
:10127000E1130008EF130008FD1300080B14000829
:101280001914000827140008351400084314000836
:10129000511400085F1400086D1400087B14000846
:1012A0008914000897140008A5140008B314000856
:1012B000C1140008CF140008DD140008EB14000866
:1012C000F914000807150008151500082315000873
:1012D000311500083F1500084D1500085B15000882
:1012E0006D1500087B150008891500089715000882
:1012F000A5150008B3150008C1150008CF15000892
:10130000DD150008EB150008F915000807160008A0
:10131000151600082316000831160008924A924B51
:101320001B6B23F00103136389E18F4A8E4B1B6B08
:1013300023F00203136382E18B4A8B4B1B6B23F078
:10134000040313637BE1884A874B1B6B23F008037C
:10135000136374E1844A844B1B6B23F01003136303
:101360006DE1814A804B1B6B23F02003136366E120
:101370007D4A7D4B1B6B23F0400313635FE17A4A88
:10138000794B1B6B23F08003136358E1764A764B4D
:101390001B6B23F48073136351E1734A724B1B6B15
:1013A00023F4805313634AE16F4A6F4B1B6B23F4A2
:1013B0000013136343E16C4A6B4B1B6B23F48003F4
:1013C00013633CE1684A684B1B6B23F000731363A3
:1013D00035E1654A644B1B6B23F0005313632EE128
:1013E000614A614B1B6B23F08043136327E15E4A24
:1013F0005D4B5B6B23F00103536320E15A4A5A4B68
:101400005B6B23F01003536319E1574A564B5B6B38
:1014100023F02003536312E1534A534B5B6B23F0D9
:10142000400353630BE1504A4F4B5B6B23F0800347
:10143000536304E14C4A4C4B9B6B23F001039363D1
:10144000FDE0494A484B1B6C23F001031364F6E0AE
:10145000454A454B1B6C23F002031364EFE0424AFC
:10146000414B1B6C23F004031364E8E03E4A3E4BFF
:101470001B6C23F008031364E1E03B4A3A4B1B6CFE
:1014800023F010031364DAE0374A374B1B6C23F068
:1014900020031364D3E0344A334B1B6C23F0400326
:1014A0001364CCE0304A304B1B6C23F08003136490
:1014B000C5E02D4A2C4B1B6C23F480731364BEE0F3
:1014C000294A294B1B6C23F400631364B7E0264AB6
:1014D000254B1B6C23F480431364B0E0224A224B5B
:1014E0001B6C23F400431364A9E01F4A1E4B1B6CC2
:1014F00023F400331364A2E01B4A1B4B1B6C23F440
:10150000802313649BE0184A174B1B6C23F40023C1
:10151000136494E0144A144B1B6C23F4801313647B
:101520008DE0114A104B1B6C23F40013136486E00A
:101530000D4A0D4B1B6C23F4800313647FE00A4AB1
:10154000094B1B6C23F40003136478E0064A064B36
:101550001B6C23F00073136471E0034A024B1B6C95
:1015600023F0806313646AE000380240364A364B49
:101570001B6C23F08053136461E0334A324B1B6CC5
:1015800023F0005313645AE02F4A2F4B5B6C23F077
:101590000103536453E02C4A2B4B5B6C23F0020392
:1015A00053644CE0284A284B5B6C23F010035364CF
:1015B00045E0254A244B5B6C23F0200353643EE056
:1015C000214A214B5B6C23F48073536437E01E4A3D
:1015D0001D4B5B6C23F48073536430E01A4A1A4B42
:1015E0005B6C23F48073536429E0174A164B5B6CE1
:1015F00023F40063536422E0134A134B5B6C23F41F
:10160000805353641BE0104A0F4B5B6C23F4804300
:10161000536414E00C4A0C4B5B6C23F4803353642A
:101620000DE0094A084B5B6C23F40033536406E079
:10163000054A054B5B6C23F48023536400BF0C37D1
:10164000BD465DF8047B70470038024080B48BB023
:1016500000AF7860414B9B6803F00C033B623B6A30
:10166000042B07D0082B09D0002B3CD17B683C4AC7
:101670001A603CE07B683B4A1A6038E0374B5B6895
:1016800003F480039B0D002B14BF01230023FB7781
:10169000FB7F002B02D0334B7B6201E0304B7B623F
:1016A0002E4B5B6803F03F03BB612C4B5A6847F637
:1016B000C07313409B097B617A6ABB69B2FBF3F389
:1016C0007A6902FB03F33B61244B5B6803F440330C
:1016D0001B0C01335B00FB603A69FB68B2FBF3F261
:1016E0007B681A6003E07B681D4A1A6000BF002314
:1016F000BB601A4B9B6803F0F0031B09BB607B685F
:101700001B681949BA680A44127823FA02F27B6806
:101710005A60124B9B6803F4E0539B0ABB607B68E2
:101720005B681249BA680A44127823FA02F27B68AD
:101730009A600A4B9B6803F460435B0BBB607B6859
:101740005B680A49BA680A44127823FA02F27B6895
:10175000DA602C37BD465DF8047B704700380240E4
:101760000024F40000127A00300900202009002033
:1017700080B485B000AF78600B4B1B68002B02D1A2
:10178000094B0A4A1A60084B1B68FB60064B1A6833
:101790007B681344044A1360FB6818461437BD463F
:1017A0005DF8047B704700BF68090020B80A01207B
:1017B00080B483B000AF786039604FF0FF331846D3
:1017C0000C37BD465DF8047B704700BF80B483B022
:1017D00000AF78604FF0FF3318460C37BD465DF818
:1017E000047B704780B483B000AF786039603B6899
:1017F0004FF400525A60002318460C37BD465DF87E
:10180000047B704780B483B000AF78600123184632
:101810000C37BD465DF8047B704700BF80B485B0CF
:1018200000AFF860B9607A60002318461437BD46EF
:101830005DF8047B704700BF80B485B000AFF860EE
:10184000B9607A60002318461437BD465DF8047B02
:10185000704700BF80B483B000AF7860FEE700BF80
:1018600080B483B000AF7860396000BF0C37BD46EC
:101870005DF8047B704700BF80B400AF4FF0FF33CA
:101880001846BD465DF8047B704700BF80B58AB03E
:1018900002AFF860B9603B601346FB80FB881846D6
:1018A000396B7A6B01F098F9B861BB69002B6BD08A
:1018B000BB691A6BFB8803F18043013B9B00134417
:1018C0007B617B6923F007037B61FB880093B86928
:1018D000B968BA6ABB6B01F0B1F87869F9683A681F
:1018E00001F0AEFE0246BB691A60FB6A002B02D013
:1018F000FB6ABA691A6001F031FF324B1B68013391
:10190000304A1360304B1B68002B09D12E4ABB694B
:1019100013602C4B1B68012B0FD101F0E5F80CE094
:101920002A4B1B68002B08D1274B1B68DA6ABB6A5D
:101930009A4202D8244ABB691360254B1B680133C5
:10194000234A1360224B1A68BB695A64BB69DB6A7D
:101950001A46012303FA02F21E4B1B6813431D4A69
:101960001360BB69DA6A13469B0013449B001A4A52
:101970001A44BB6904331046194602F031F80123BA
:10198000FB6101F003FF02E04FF0FF33FB61FB69F5
:10199000012B11D10D4B1B68002B0DD00A4B1B687E
:1019A000DA6ABB6A9A4207D20C4B4FF080521A6037
:1019B000BFF34F8FBFF36F8FFB6918462037BD46CB
:1019C00080BD00BF800A00206C0900208C0A002026
:1019D0009C0A0020880A00207009002004ED00E025
:1019E00080B584B000AF786001F0B8FE7B68002B52
:1019F00002D1334B1B6800E07B68FB60FB6804335B
:101A0000184602F049F80346002B15D1FB68DA6A44
:101A10002C4913469B0013449B000B441B68002B6E
:101A20000AD1FB68DB6A1A4601239340DA43264B4E
:101A30001B681340244A1360FB689B6A002B04D088
:101A4000FB681833184602F027F81D4B1B68FA682C
:101A50009A420BD1FB6804331C48194601F0C0FFC1
:101A60001B4B1B6801331A4A136007E0194B1B68B4
:101A7000013B184A1360F86801F0BCF9164B1B686B
:101A80000133154A136001F081FE144B1B68002BD3
:101A900013D00B4B1B68FA689A4208D1104B4FF0D9
:101AA00080521A60BFF34F8FBFF36F8F05E001F0D4
:101AB00055FE01F0AFF901F069FE1037BD4680BD5B
:101AC0006C09002070090020880A0020540A0020B8
:101AD000680A0020800A00209C0A00208C0A00204E
:101AE00004ED00E080B586B000AF78603960002377
:101AF0007B6100F04BFB214B1B683B617B681A68E4
:101B00003B681344FB607B681A683B699A420BD9B7
:101B10007B681A68FB689A4211D9FA683B699A4255
:101B20000DD901237B610AE07B681A68FB689A4241
:101B300003D8FA683B699A4201D901237B617B682B
:101B4000FA681A607B69002B06D0FA683B69D31AE1
:101B50001846002101F00AFD00F026FBB860BB68C2
:101B6000002B07D1064B4FF080521A60BFF34F8F06
:101B7000BFF36F8F1837BD4680BD00BF840A0020B9
:101B800004ED00E080B584B000AF78600023FB6016
:101B90007B68002B08D000F0F9FA7868002101F08A
:101BA000E5FC00F001FBF860FB68002B07D1054B5A
:101BB0004FF080521A60BFF34F8FBFF36F8F103713
:101BC000BD4680BD04ED00E080B586B000AF786012
:101BD0007B683B611D4B1B683A699A4202D1002326
:101BE000FB752DE001F0BAFD3B695B69FB6001F01C
:101BF000CDFD174B1B68FA689A4204D0154B1B6841
:101C0000FA689A4202D10223FB7519E0FB68124A76
:101C1000934209D13B699B6A002B02D10323FB75D8
:101C20000EE00223FB750BE0FB680C4A934202D0E6
:101C3000FB68002B02D10423FB7501E00123FB7537
:101C4000FB7D18461837BD4680BD00BF6C090020DB
:101C5000380A00203C0A00206C0A0020540A0020A8
:101C600080B584B000AF786001F078FD7B68002B10
:101C700002D1074B1B6800E07B68FB60FB68DB6AF6
:101C8000BB6001F083FDBB6818461037BD4680BDC0
:101C90006C09002080B489B000AF7860EFF3118246
:101CA0004FF0BF0383F31188BFF36F8FBFF34F8FE4
:101CB0003A61FB603B69FB617B68002B02D10A4BF8
:101CC0001B6800E07B68BB61BB69DB6A7B61FB6909
:101CD000BB60BB6883F311887B6918462437BD4617
:101CE0005DF8047B704700BF6C09002080B586B0AA
:101CF00000AF7860396000237B613B68072B01D916
:101D000007233B6001F02AFD7B68002B02D1444B86
:101D10001B6800E07B683B613B69DB6CFB60FA6839
:101D20003B689A4276D03A68FB689A420DD93C4BA0
:101D30001B683A699A420FD0394B1B68DA6A3B68D4
:101D40009A4209D801237B6106E0354B1B683A694A
:101D50009A4201D101237B613B69DB6ABB603B692D
:101D6000DA6C3B69DB6A9A4202D13B693A68DA6213
:101D70003B693A68DA643B699B69002B04DB3B688A
:101D8000C3F108023B699A613B695969BA68134615
:101D90009B0013449B00234A1344994201D1012321
:101DA00000E00023002B2AD03B690433184601F0E1
:101DB00073FE0346002B09D1BB68012202FA03F32C
:101DC000DA43194B1B681340174A13603B69DB6AFF
:101DD0001A46012303FA02F2134B1B681343124AFB
:101DE00013603B69DA6A13469B0013449B000D4A5B
:101DF0001A443B6904331046194601F0F1FD7B6932
:101E0000002B07D0094B4FF080521A60BFF34F8F61
:101E1000BFF36F8F01F0BAFC1837BD4680BD00BF1D
:101E20006C09002070090020880A002004ED00E001
:101E300080B584B000AF786001F090FC7B68002B27
:101E400002D12F4B1B6800E07B68FB60FB6804330A
:101E5000184601F021FE0346002B15D1FB68DA6A13
:101E6000284913469B0013449B000B441B68002B1E
:101E70000AD1FB68DB6A1A4601239340DA43224BFE
:101E80001B681340204A1360FB689B6A002B04D038
:101E9000FB681833184601F0FFFDFB6804331B484C
:101EA000194601F09DFD01F071FC194B1B68002BD8
:101EB00005D001F053FC00F0ADFF01F067FC104BC2
:101EC0001B68FA689A4218D1114B1B68002B08D086
:101ED000104B4FF080521A60BFF34F8FBFF36F8FDC
:101EE0000BE00A4B1A680C4B1B689A4203D1044B57
:101EF00000221A6001E000F0BFFB1037BD4680BD34
:101F00006C09002070090020880A00206C0A00205B
:101F10008C0A002004ED00E0800A002080B485B027
:101F200000AF78600023FB607B68BB60BB685B69C7
:101F30000F4A934201D1012300E00023002B0FD070
:101F4000BB689B6A0B4A93420AD0BB689B6A002B12
:101F500001D1012300E00023002B01D00123FB600D
:101F6000FB6818461437BD465DF8047B704700BF18
:101F70006C0A0020400A002080B584B000AF786071
:101F80007B68FB60FB68002B3BD01F4B1B68FA682B
:101F90009A4236D001F0E2FBF868FFF7BFFF034634
:101FA000002B2CD0FB680433184601F075FDFB684C
:101FB000DB6A1A46012303FA02F2144B1B6813432F
:101FC000124A1360FB68DA6A13469B0013449B00B5
:101FD0000F4A1A44FB6804331046194601F000FD0D
:101FE000FB68DA6A084B1B68DB6A9A4207D3094B25
:101FF0004FF080521A60BFF34F8FBFF36F8F01F025
:10200000C5FB1037BD4680BD6C090020880A002042
:102010007009002004ED00E080B588B000AF786062
:102020000023FB617B68BB61EFF311824FF0BF03BC
:1020300083F31188BFF36F8FBFF34F8F3A61FB605B
:102040003B697B61B869FFF769FF0346002B31D01C
:102050001D4B1B68002B27D1BB69DA6A1B4B1B6821
:10206000DB6A9A4201D30123FB61BB690433184642
:1020700001F012FDBB69DB6A1A46012303FA02F282
:10208000134B1B681343124A1360BB69DA6A134689
:102090009B0013449B000F4A1A44BB69043310464B
:1020A000194601F09DFC05E0BB6918330A48194642
:1020B00001F096FC7B69BB60BB6883F31188FB6908
:1020C00018462037BD4680BDA80A00206C090020B4
:1020D000880A002070090020400A002080B58CB0DA
:1020E00006AF00237B6100233B614FF48073FB81CB
:1020F000FA8900230093144B01933B6902937B6997
:10210000039300230493114811490023FFF7BEFBFA
:10211000B860BB68012B14D14FF0BF0383F3118863
:10212000BFF36F8FBFF34F8F7B600A4B4FF0FF32CF
:102130001A60094B01221A60084B00221A6001F054
:10214000DFFA1837BD4680BDA40A00200D2A00081A
:10215000003B0008A00A00208C0A0020840A00200E
:1021600080B582B000AF4FF0BF0383F31188BFF397
:102170006F8FBFF34F8F7B60034B00221A6001F01B
:10218000E7FA0837BD4680BD8C0A002080B400AF56
:10219000044B1B680133034A1360BD465DF8047BA2
:1021A000704700BFA80A002080B582B000AF0023AE
:1021B0007B6000233B6001F0D1FA394B1B68013B87
:1021C000374A1360364B1B68002B62D1354B1B68B6
:1021D000002B5ED030E0344BDB68DB687B607B68D3
:1021E0001833184601F058FC7B680433184601F098
:1021F00053FC7B68DB6A1A46012303FA02F22B4B7D
:102200001B681343294A13607B68DA6A13469B00F4
:1022100013449B00264A1A447B680433104619462F
:1022200001F0DEFB7B68DA6A224B1B68DB6A9A42AC
:1022300002D3214B01221A601B4B1B68002BCAD111
:102240007B68002B01D000F0E5FD1C4B1B68002BC8
:1022500011D00CE000F000F90346002B02D0164B21
:1022600001221A60154B1B68013B144A1360134B83
:102270001B68002BEED1104B1B68002B09D00123EB
:102280003B600F4B4FF080521A60BFF34F8FBFF38C
:102290006F8F01F07BFA3B6818460837BD4680BD5A
:1022A000A80A0020800A0020400A0020880A002096
:1022B000700900206C090020940A0020900A002078
:1022C00004ED00E080B483B000AF054B1B687B6079
:1022D0007B6818460C37BD465DF8047B704700BF2D
:1022E000840A002080B483B000AF00237B60054BDC
:1022F0001B683B603B6818460C37BD465DF8047BA5
:10230000704700BF840A002080B400AF034B1B68F5
:102310001846BD465DF8047B704700BF800A002068
:1023200080B586B000AFF860B9607A6000237B6149
:1023300008233B61FFF72AFF3B4B1B68BA689A42B0
:102340006BD33B69013B3B617A691346DB00134465
:102350009B001A46FB6899183A6913469B00134480
:102360009B00324A134408461946012200F0D2FC71
:1023700002467B6913447B613B69002BE1D17A699A
:102380001346DB0013449B001A46FB681A44284B93
:102390001B6810461946022200F0BCFC02467B690D
:1023A00013447B617A691346DB0013449B001A4691
:1023B000FB681A441F4B1B6810461946022200F0A6
:1023C000A9FC02467B6913447B617A691346DB00F2
:1023D00013449B001A46FB6813441846164904220E
:1023E00000F098FC02467B6913447B617A691346CE
:1023F000DB0013449B001A46FB68134418460F4940
:10240000032200F087FC02467B6913447B617B68F2
:10241000002B02D07B6800221A60FFF7C5FE7B69A3
:1024200018461837BD4680BD800A0020700900207C
:10243000380A00203C0A0020540A00206C0A0020C0
:1024400080B400AF034B1B681846BD465DF8047BA3
:10245000704700BFA40A002080B586B000AF0023FB
:102460007B614E4B1B68002B40F086804C4B1B68F9
:1024700001334B4A13604A4B1B683B613B69002B9D
:1024800010D1484B1B68FB60474B1B68454A1360E3
:10249000454AFB681360454B1B680133434A136090
:1024A00000F0B8FC424B1B683A699A424FD33D4B4F
:1024B0001B681B68002B01D1012300E00023002BC7
:1024C00004D03B4B4FF0FF321A6040E0354B1B68A5
:1024D000DB68DB68BB60BB685B687B603A697B6814
:1024E0009A4203D2324A7B68136030E0BB680433FF
:1024F000184601F0D1FABB689B6A002B04D0BB6878
:102500001833184601F0C8FABB68DB6A1A46012383
:1025100003FA02F2274B1B681343264A1360BB6879
:10252000DA6A13469B0013449B00234A1A44BB6893
:1025300004331046194601F053FABB68DA6A1F4BA0
:102540001B68DB6A9A4201D301237B61AFE71B4B17
:102550001B68DA6A184913469B0013449B000B441E
:102560001B68012B01D901237B61154B1B68002BD4
:1025700009D101F0FFF906E0114B1B680133104A45
:10258000136001F0F7F90F4B1B68002B01D00123FA
:102590007B617B6918461837BD4680BDA80A0020BC
:1025A000840A0020380A00203C0A0020980A0020F3
:1025B000A00A0020880A0020700900206C09002071
:1025C000900A0020940A002080B584B000AF7860A3
:1025D00039607B68002B03D1074B1B68FB6001E06F
:1025E0007B68FB6001F0BAF8FB683A685A6501F055
:1025F000CDF81037BD4680BD6C09002080B584B091
:1026000000AF78607B68002B03D1094B1B68FB602F
:1026100001E07B68FB6001F0A1F8FB685B6DBB60CB
:1026200001F0B4F8BB6818461037BD4680BD00BF46
:102630006C09002080B584B000AF786039607B6899
:10264000002B03D10B4B1B68FB6001E07B68FB6038
:10265000FB685B6D002B05D0FB685B6D38689847A5
:10266000B86001E00023BB60BB6818461037BD4668
:1026700080BD00BF6C09002080B586B000AF2E4B36
:102680001B68002B03D02D4B01221A6051E02B4B0D
:1026900000221A602A4B1B681B6B7B614FF0A5332D
:1026A0003B617B691A683B699A4211D17B690433AB
:1026B0001A683B699A420BD17B6908331A683B69F7
:1026C0009A4205D17B690C331A683B699A4208D05B
:1026D0001B4B1A681A4B1B6834331046194601F01D
:1026E0004FF9184B1B687B607B68B3FA83F3FB7070
:1026F000FB78C3F11F03FB60FA6813469B00134489
:102700009B00114A1344BB60BB685B685A68BB6896
:102710005A60BB685A68BB6808339A4204D1BB68E8
:102720005B685A68BB685A60BB685B68DB68044AD0
:1027300013601837BD4680BDA80A0020940A002007
:102740006C090020880A00207009002080B582B042
:1027500000AF78603960074B1B68183378681946FA
:1027600001F062F93868012100F000FF0837BD462A
:1027700080BD00BF6C09002080B584B000AFF86058
:10278000B9607A60094B1B68BA6842F000429A61EE
:10279000064B1B681833F868194601F021F9786870
:1027A000012100F0E3FE1037BD4680BD6C0900201A
:1027B00080B584B000AF78607B68DB68DB68BB60A5
:1027C000BB681833184601F067F91E4B1B68002BD5
:1027D0001ED1BB680433184601F05EF9BB68DB6AA2
:1027E0001A46012303FA02F2174B1B681343164AD9
:1027F0001360BB68DA6A13469B0013449B00134ABC
:102800001A44BB6804331046194601F0E9F805E0A4
:10281000BB6818330E48194601F0E2F8BB68DA6A63
:102820000C4B1B68DB6A9A4205D90123FB600A4BFB
:1028300001221A6001E00023FB60FB681846103794
:10284000BD4680BDA80A0020880A0020700900202B
:10285000400A00206C090020940A002080B584B052
:1028600000AF786039603B6843F000427B681A60D3
:102870007B68DB68BB60786801F00EF9BB680433E5
:10288000184601F009F9BB68DB6A1A46012303FA0E
:1028900002F2134B1B681343114A1360BB68DA6AD8
:1028A00013469B0013449B000E4A1A44BB68043332
:1028B0001046194601F094F8BB68DA6A0A4B1B68A7
:1028C000DB6A9A4205D90123FB60084B01221A609A
:1028D00001E00023FB60FB6818461037BD4680BD51
:1028E000880A0020700900206C090020940A00204A
:1028F00080B483B000AF7860064B1A687B681A60BA
:10290000054B1A687B685A600C37BD465DF8047B3E
:10291000704700BF980A0020840A002080B584B068
:1029200000AF7860396000F019FF1C4B1B68BB607A
:102930003B681B68B3F1FF3F02D10023FB6026E038
:102940007B681A68164B1B689A4207D07B685A68E6
:10295000BB689A4202D80123FB6018E07B685B6881
:10296000BA68D21A3B681B689A420ED23B681A6852
:102970007B685968BB68CB1A1A443B681A60786850
:10298000FFF7B6FF0023FB6001E00123FB6000F0CE
:10299000FDFEFB6818461037BD4680BD840A002046
:1029A000980A002080B400AF034B01221A60BD4694
:1029B0005DF8047B704700BF940A002080B485B0A6
:1029C00000AF78607B68002B05D07B68BB60BB687C
:1029D0009B6CFB6001E00023FB60FB68184614372A
:1029E000BD465DF8047B704780B485B000AF786069
:1029F00039607B68002B04D07B68FB60FB683A6819
:102A00009A641437BD465DF8047B704780B582B088
:102A100000AF786000F0A6F8064B1B68012B07D9C1
:102A2000054B4FF080521A60BFF34F8FBFF36F8F8B
:102A3000F0E700BF7009002004ED00E080B586B02B
:102A400000AFF860B9607A603B6000237B6113E0FF
:102A5000BA687B6913441978FA687B691344303388
:102A60000A461A71BA687B6913441B78002B00D19F
:102A700005E07B6901337B617B690F2BE8D9FB683B
:102A8000002283F843207B68072B01D907237B6052
:102A9000FB687A68DA62FB687A68DA64FB680022AD
:102AA0001A65FB680433184600F08EFFFB68183384
:102AB000184600F089FFFB68FA681A617B68C3F169
:102AC0000802FB689A61FB68FA685A62FB68002298
:102AD0005A65FB6800229A65FB68002283F85C2037
:102AE0001837BD4680BD00BF80B582B000AF00235F
:102AF0007B600CE07A6813469B0013449B00114AEC
:102B00001344184600F040FF7B6801337B607B680C
:102B1000072BEFD90C4800F037FF0C4800F034FFCA
:102B20000B4800F031FF0B4800F02EFF0A4800F080
:102B30002BFF0A4B044A1A60094B044A1A600837F3
:102B4000BD4680BD70090020100A0020240A002024
:102B5000400A0020540A00206C0A0020380A002095
:102B60003C0A002080B582B000AF28E0FFF70EFBE2
:102B7000164B1B68002B0CBF01230023DBB27B60CC
:102B8000FFF712FB7B68002B19D100F0E7FD0F4B1C
:102B9000DB68DB683B603B680433184600F07CFF71
:102BA0000B4B1B68013B0A4A13600A4B1B68013B35
:102BB000084A136000F0EAFD386800F01BF9054B85
:102BC0001B68002BD2D10837BD4680BD540A0020B7
:102BD000800A0020680A002080B586B000AF034656
:102BE000B9607A60FB81BB68002B06D1FB899B0032
:102BF000184600F055FE034600E0BB683B613B69A8
:102C0000002B17D07B68002B04D1602000F048FE19
:102C1000034600E07B687B617B69002B03D07B6906
:102C20003A691A6308E0BB68002B05D1386900F0E7
:102C30007DFE01E000237B617B69002B08D07B696E
:102C40001A6BFB899B001046A5211A46FDF740FB35
:102C50007B6918461837BD4680BD00BF80B586B079
:102C600000AFF860B9607A60FB70FB68002B02D19E
:102C7000274B1B6800E0FB687B61BB687A691A60C0
:102C80007B6903F13402BB685A607B69DA6ABB680E
:102C90001A617B691A6BBB68DA617B695A6CBB6825
:102CA0009A60BB681B7B032B0AD1FFF76FFA7B6925
:102CB0009B6A002B02D0BB6802221A73FFF774FADA
:102CC0007B69DA6CBB685A61BB6800229A61FB7849
:102CD000052B03D0BB68FA781A7306E0F868FEF794
:102CE00073FF03461A46BB681A737B68002B09D032
:102CF0007B691B6B184600F061F803461A46BB68F7
:102D00001A8402E0BB6800221A841837BD4680BDD1
:102D10006C09002080B58AB000AFF860B960134636
:102D2000FB7100237B62BB681B68002B40D0BB6833
:102D30003B623B6A5B685A683B6A5A603B6A5A6806
:102D40003B6A08339A4204D13B6A5B685A683B6A23
:102D50005A603B6A5B68DB68FB61BB68BB61BB694F
:102D60005B685A68BB695A60BB695A68BB690833BB
:102D70009A4204D1BB695B685A68BB695A60BB69F7
:102D80005B68DB687B617A6A1346DB0013449B0057
:102D90001A46FB681A44FB79786911460122FFF74D
:102DA0005DFF7B6A01337B627A69FB699A42D4D109
:102DB0007B6A18462837BD4680BD00BF80B485B009
:102DC00000AF78600023FB6005E07B6801337B6027
:102DD000FB680133FB607B681B78A52BF5D0FB6893
:102DE0009B08FB60FB689BB218461437BD465DF834
:102DF000047B704780B582B000AF78607B681B6B46
:102E0000184600F093FD786800F090FD0837BD4645
:102E100080BD00BF80B483B000AF0E4B1B681B6841
:102E2000002B01D1012300E00023002B04D00A4B2A
:102E30004FF0FF321A6008E0064B1B68DB68DB6866
:102E40007B607B685B68044A13600C37BD465DF8A5
:102E5000047B7047380A0020A00A002080B483B0A9
:102E600000AF054B1B687B607B6818460C37BD467E
:102E70005DF8047B704700BF6C09002080B584B00A
:102E800000AF78607B68FB607B68002B64D0FB68D8
:102E9000DA6A334B1B68DB6A9A425DD2FB689B6936
:102EA000002B06DB2E4B1B68DB6AC3F10802FB68B4
:102EB0009A61FB685969FB68DA6A13469B00134400
:102EC0009B00284A1344994201D1012300E00023CA
:102ED000002B3CD0FB680433184600F0DDFD0346B0
:102EE000002B15D1FB68DA6A1E4913469B00134478
:102EF0009B000B441B68002B0AD1FB68DB6A1A4657
:102F000001239340DA43184B1B681340164A1360A1
:102F1000134B1B68DA6AFB68DA62FB68DB6A1A46E5
:102F2000012303FA02F2104B1B6813430E4A13608D
:102F3000FB68DA6A13469B0013449B00094A1A4453
:102F4000FB6804331046194600F04AFD04E0044BC8
:102F50001B68DA6AFB68DA621037BD4680BD00BFC5
:102F60006C09002070090020880A002080B584B018
:102F700000AF78607B68BB600023FB607B68002B40
:102F800051D0BB681B6D5A1EBB681A65BB68DA6AF4
:102F9000BB68DB6C9A4246D0BB681B6D002B42D1EC
:102FA000BB680433184600F077FD0346002B15D1AB
:102FB000BB68DA6A1E4913469B0013449B000B440E
:102FC0001B68002B0AD1BB68DB6A1A4601239340B9
:102FD000DA43184B1B681340164A1360BB68DA6C5F
:102FE000BB68DA62BB68DB6AC3F10802BB689A613E
:102FF000BB68DB6A1A46012303FA02F20D4B1B6819
:1030000013430C4A1360BB68DA6A13469B001344EF
:103010009B00074A1A44BB6804331046194600F067
:10302000DFFC0123FB60FB6818461037BD4680BDFE
:1030300070090020880A002080B483B000AF094BDB
:103040001B689B697B60074B1B68064A1268D26A43
:10305000C2F108029A617B6818460C37BD465DF8DC
:10306000047B70476C09002080B400AF074B1B68DD
:10307000002B04D0054B1B681A6D01321A65034BF7
:103080001B681846BD465DF8047B70476C0900203C
:1030900080B584B000AF7860396000F05FFB1E4BF4
:1030A0001B689B6D002B13D11B4B1B68012283F8FF
:1030B0005C203B68002B0BD03868012100F056FAE9
:1030C000164B4FF080521A60BFF34F8FBFF36F8FD4
:1030D00000F05CFB00F042FB0F4B1B689B6DFB603C
:1030E000FB68002B0CD07B68002B04D00A4B1B68BC
:1030F00000229A6504E0084B1B689A6D013A9A65B4
:10310000054B1B68002283F85C2000F03FFBFB6846
:1031100018461037BD4680BD6C09002004ED00E064
:1031200080B586B000AFF860B9607A603B6000F0AF
:1031300015FB264B1B6893F85C30DBB2022B1AD0D0
:10314000224B1B68996DFA68D2430A409A651F4B5F
:103150001B68012283F85C203B68002B0BD0386889
:10316000012100F003FA1A4B4FF080521A60BFF3AE
:103170004F8FBFF36F8F00F009FB00F0EFFA7B6811
:10318000002B04D0114B1B689A6D7B681A600F4BA3
:103190001B6893F85C30DBB2012B02D100237B610A
:1031A00008E00A4B1B68996DBA68D2430A409A65D9
:1031B00001237B61054B1B68002283F85C2000F033
:1031C000E5FA7B6918461837BD4680BD6C090020BA
:1031D00004ED00E080B588B000AFF860B9603B60F6
:1031E0001346FB710123FB61FB68BB6100F0B6FA7B
:1031F0003B68002B03D0BB699A6D3B681A60BB69C2
:1032000093F85C30FB75BB69022283F85C20FB7984
:10321000042B28D801A252F823F000BF673200081F
:10322000313200083F3200084B32000853320008A8
:10323000BB699A6DBB681A43BB699A6513E0BB69A9
:103240009B6D5A1CBB699A650DE0BB69BA689A65AB
:1032500009E0FB7D022B03D0BB69BA689A6501E0E7
:103260000023FB6100BFFB7D012B2CD1BB69043324
:10327000184600F011FCBB69DB6A1A46012303FA09
:1032800002F2144B1B681343124A1360BB69DA6ADB
:1032900013469B0013449B000F4A1A44BB69043336
:1032A0001046194600F09CFBBB69DA6A0B4B1B68A1
:1032B000DB6A9A4207D90A4B4FF080521A60BFF37B
:1032C0004F8FBFF36F8F00F061FAFB69184620370C
:1032D000BD4680BD880A0020700900206C090020CE
:1032E00004ED00E080B58CB000AFF860B9603B60E1
:1032F0001346FB710123FB62FB68BB62EFF3118293
:103300004FF0BF0383F31188BFF36F8FBFF34F8F6D
:10331000FA61BB61FB697B623B68002B03D0BB6A2F
:103320009A6D3B681A60BB6A93F85C3087F823306B
:10333000BB6A022283F85C20FB79042B28D801A207
:1033400052F823F09133000859330008673300081E
:10335000733300087B330008BB6A9A6DBB681A435D
:10336000BB6A9A6514E0BB6A9B6D5A1CBB6A9A657E
:103370000EE0BB6ABA689A650AE097F82330022B20
:1033800003D0BB6ABA689A6501E00023FB6200BF04
:1033900097F82330012B39D1214B1B68002B1ED10C
:1033A000BB6A0433184600F077FBBB6ADB6A1A4637
:1033B000012303FA02F21B4B1B681343194A1360E3
:1033C000BB6ADA6A13469B0013449B00164A1A44F0
:1033D000BB6A04331046194600F002FB05E0BB6AE5
:1033E00018331248194600F0FBFABB6ADA6A104B30
:1033F0001B68DB6A9A4209D9BB6B002B03D0BB6BFD
:1034000001221A6002E00B4B01221A607B6A7B6189
:103410007B6983F31188FB6A18463037BD4680BD4F
:10342000A80A0020880A002070090020400A002015
:103430006C090020940A002080B588B000AF786045
:1034400039607B68FB61EFF311824FF0BF0383F3B8
:103450001188BFF36F8FBFF34F8F3A61FB603B69F9
:10346000BB61FB6993F85C30FB75FB69022283F852
:103470005C20FB699B6D5A1CFB699A65FB7D012BE7
:1034800039D1214B1B68002B1ED1FB690433184630
:1034900000F002FBFB69DB6A1A46012303FA02F221
:1034A0001A4B1B681343194A1360FB69DA6A134607
:1034B0009B0013449B00164A1A44FB6904331046D0
:1034C000194600F08DFA05E0FB69183311481946DA
:1034D00000F086FAFB69DA6A0F4B1B68DB6A9A42D6
:1034E00009D93B68002B03D03B6801221A6002E037
:1034F0000A4B01221A60BB69BB60BB6883F3118869
:103500002037BD4680BD00BFA80A0020880A0020E1
:1035100070090020400A00206C090020940A002055
:1035200080B584B000AF78607B68002B02D10E4B71
:103530001B6800E07B68BB6000F010F9BB6893F883
:103540005C30DBB2022B06D1BB68002283F85C2022
:103550000123FB6001E00023FB6000F017F9FB682A
:1035600018461037BD4680BD6C09002080B584B078
:1035700000AF78603960284B1B680433184600F0B0
:103580008BFA0346002B0BD1234B1B68DB6A1A46D0
:1035900001239340DA43214B1B6813401F4A1360F9
:1035A0007B68B3F1FF3F0AD13B68002B07D01A4B71
:1035B0001B6804331A48194600F012FA28E0194B28
:1035C0001A687B681344FB60134B1B68FA685A60E7
:1035D000144B1B68FA689A4209D2134B1A680E4BB7
:1035E0001B6804331046194600F01EFA10E00F4B1A
:1035F0001A68094B1B6804331046194600F014FA88
:103600000B4B1B68FA689A4202D2094AFB681360A6
:103610001037BD4680BD00BF6C090020880A00201D
:103620006C0A0020840A00203C0A0020380A00208E
:10363000A00A0020000000000000000000000000C0
:1036400080B485B000AFF860B9607A60FB68043B75
:10365000FB60FB684FF080721A60FB68043BFB6004
:10366000BA68FB681A60FB68043BFB600C4AFB68A5
:103670001A60FB68143BFB607A68FB681A60FB68A1
:10368000043BFB60FB686FF002021A60FB68203BA2
:10369000FB60FB6818461437BD465DF8047B704735
:1036A000A536000880B483B000AF4FF0BF0383F3AA
:1036B0001188BFF36F8FBFF34F8F7B60FEE700BFB2
:1036C000074B19680868B0E8F04F80F30988BFF32A
:1036D0006F8F4FF0000080F311887047AFF30080C8
:1036E0006C0900206C480068006880F3088862B6A6
:1036F00061B6BFF34F8FBFF36F8F00DF00BF00BF16
:1037000080B500AF0F4A0F4B1B6843F47F03136073
:103710000C4A0C4B1B6843F07F43136000F0A2F887
:10372000094B00221A6000F0AFF8084A074B1B68EB
:1037300043F040431360FFF7D5FFFFF7B3FF0023CB
:10374000184680BD20ED00E04009002034EF00E085
:1037500080B400AFBD465DF8047B704780B483B091
:1037600000AF4FF0BF0383F31188BFF36F8FBFF338
:103770004F8F7B60044B1B680133034A13600C3787
:10378000BD465DF8047B70474009002080B483B0DB
:1037900000AF094B1B68013B074A1360064B1B68CF
:1037A000002B04D100237B607B6883F311880C37E6
:1037B000BD465DF8047B704740090020EFF30980A7
:1037C000BFF36F8F164B1A681EF0100F08BF20ED65
:1037D000108A20E9F04F10604DF8043D4FF0BF0013
:1037E00080F31188BFF34F8FBFF36F8FFEF744FF55
:1037F0004FF0000080F3118808BC19680868B0E831
:10380000F04F1EF0100F08BFB0EC108A80F309884B
:10381000BFF36F8F704700BFAFF30080AFF300803E
:103820006C09002080B582B000AF4FF0BF0383F376
:103830001188BFF36F8FBFF34F8F7B60FEF70CFED5
:103840000346002B03D0064B4FF080521A60002332
:103850003B603B6883F311880837BD4680BD00BFDD
:1038600004ED00E080B400AF044B054A1A60054B3C
:1038700007221A60BD465DF8047B704714E000E043
:103880003F90020010E000E0DFF81000016841F412
:10389000700101607047000008ED00E088ED00E075
:1038A00080B584B000AF78600023FB607B6803F0D4
:1038B0000703002B04D07B6823F0070308337B60E9
:1038C000FEF764FC164B1B68002B05D1154B23F04B
:1038D00007031A46124B1A60134B1A687B6813448D
:1038E0004FF6F772934213D80F4B1A687B681A444D
:1038F0000D4B1B689A420BD9094B1A680A4B1B687F
:103900001344FB60084B1A687B681344064A136033
:10391000FEF74AFCFB6818461037BD4680BD00BF65
:10392000B00A0120B40A0020AC0A012080B483B0A0
:1039300000AF78600C37BD465DF8047B704700BF70
:1039400080B400AF034B00221A60BD465DF8047BD3
:10395000704700BFAC0A012080B400AF044B1B6865
:10396000C3F57F43F8331846BD465DF8047B7047C6
:10397000AC0A012080B400AFBD465DF8047B7047FF
:1039800080B400AF00BEFEE780B483B000AF7860C3
:103990007B6803F108027B685A607B684FF0FF3256
:1039A0009A607B6803F108027B68DA607B6803F148
:1039B00008027B681A617B6800221A600C37BD46DA
:1039C0005DF8047B704700BF80B483B000AF7860BF
:1039D0007B6800221A610C37BD465DF8047B704796
:1039E00080B485B000AF786039607B685B68FB604D
:1039F0003B68FA685A60FB689A683B689A60FB68A3
:103A00009B683A685A60FB683A689A603B687A68D3
:103A10001A617B681B685A1C7B681A601437BD46A4
:103A20005DF8047B704700BF80B485B000AF78605C
:103A300039603B681B68BB60BB68B3F1FF3F03D1D3
:103A40007B681B69FB600CE07B680833FB6002E06D
:103A5000FB685B68FB60FB685B681A68BB689A423E
:103A6000F6D9FB685A683B685A603B685B683A68FD
:103A70009A603B68FA689A60FB683A685A603B68EB
:103A80007A681A617B681B685A1C7B681A60143755
:103A9000BD465DF8047B704780B485B000AF7860A8
:103AA0007B681B69FB607B685B687A6892689A60D8
:103AB0007B689B687A6852685A60FB685A687B68C2
:103AC0009A4203D17B689A68FB685A607B6800223F
:103AD0001A61FB681B685A1EFB681A60FB681B684A
:103AE00018461437BD465DF8047B7047430000005C
:103AF000080000206D61696E5F7461736B000000E7
:103B000049444C450000000000000000F8B500BF2B
:103B1000F8BC08BC9E467047F8B500BFF8BC08BCAE
:043B20009E46704706
:083B2400C8C6FF7F010000008C
:043B2C00B5010008D7
:103B3000000000000000000000000000F40200206F
:103B40005C030020C403002000000000000000000F
:103B50000000000000000000000000000000000065
:103B6000000000000000000000000000EC3A000827
:103B70000000000000000000000000000000000045
:103B80000000000000000000000000000000000035
:103B90000000000000000000000000000000000025
:103BA0000000000000000000000000000000000015
:103BB0000000000000000000000000000000000005
:103BC00000000000000000000000000000000000F5
:103BD00000000000000000000000000000000000E5
:103BE00001000000000000000E33CDAB34126DE682
:103BF000ECDE05000B0000000000000000000000EB
:103C000000000000000000000000000000000000B4
:103C100000000000000000000000000000000000A4
:103C20000000000000000000000000000000000094
:103C30000000000000000000000000000000000084
:103F600008000020007A030A0000000000000000A2
:103F70000102030406070809580600206006002015
:103F800068060020700600200000024000000000CB
:103F90005804002000000000580400200100000028
:103FA0005804002002000000580400200300000014
:103FB0005804002004000000580400200500000000
:103FC00058040020060000005804002007000000EC
:103FD00058040020080000005804002009000000D8
:103FE000580400200A000000580400200B000000C4
:103FF000580400200C000000580400200D000000B0
:10400000580400200E000000580400200F0000009B
:104010000004024001000000E00400200000000055
:10402000E004002001000000E00400200200000085
:10403000E004002003000000E00400200400000071
:10404000E004002005000000E0040020060000005D
:10405000E004002007000000E00400200800000049
:10406000E004002009000000E00400200A00000035
:10407000E00400200B000000E00400200C00000021
:10408000E00400200D000000E00400200E0000000D
:10409000E00400200F0000000008024002000000C1
:1040A00068050020000000006805002001000000F5
:1040B00068050020020000006805002003000000E1
:1040C00068050020040000006805002005000000CD
:1040D00068050020060000006805002007000000B9
:1040E00068050020080000006805002009000000A5
:1040F000680500200A000000680500200B00000091
:10410000680500200C000000680500200D0000007C
:10411000680500200E000000680500200F00000068
:10412000000C024003000000F00500200000000029
:10413000F005002001000000F00500200200000052
:10414000F005002003000000F0050020040000003E
:10415000F005002005000000F0050020060000002A
:10416000F005002007000000F00500200800000016
:10417000F005002009000000F00500200A00000002
:10418000F00500200B000000F00500200C000000EE
:10419000F00500200D000000F00500200E000000DA
:1041A000F00500200F000000001002400400000095
:1041B00078060020000000007806002001000000C2
:1041C00078060020020000007806002003000000AE
:1041D000780600200400000078060020050000009A
:1041E0007806002006000000780600200700000086
:1041F0007806002008000000780600200900000072
:10420000780600200A000000780600200B0000005D
:10421000780600200C000000780600200D00000049
:10422000780600200E000000780600200F00000035
:1042300000140240050000000007002000000000FC
:10424000000700200100000000070020020000001D
:104250000007002003000000000700200400000009
:1042600000070020050000000007002006000000F5
:1042700000070020070000000007002008000000E1
:104280000007002009000000000700200A000000CD
:10429000000700200B000000000700200C000000B9
:1042A000000700200D000000000700200E000000A5
:1042B000000700200F000000001802400600000068
:1042C000880700200000000088070020010000008F
:1042D000880700200200000088070020030000007B
:1042E0008807002004000000880700200500000067
:1042F0008807002006000000880700200700000053
:10430000880700200800000088070020090000003E
:10431000880700200A000000880700200B0000002A
:10432000880700200C000000880700200D00000016
:10433000880700200E000000880700200F00000002
:10434000001C0240070000001008002000000000D0
:1043500010080020010000001008002002000000EA
:1043600010080020030000001008002004000000D6
:1043700010080020050000001008002006000000C2
:1043800010080020070000001008002008000000AE
:104390001008002009000000100800200A0000009A
:1043A000100800200B000000100800200C00000086
:1043B000100800200D000000100800200E00000072
:1043C000100800200F00000000200240080000003C
:1043D000980800200000000098080020010000005C
:1043E0009808002002000000980800200300000048
:1043F0009808002004000000980800200500000034
:10440000980800200600000098080020070000001F
:10441000980800200800000098080020090000000B
:10442000980800200A000000980800200B000000F7
:10443000980800200C000000980800200D000000E3
:10444000980800200E000000980800200F000000CF
:104450000000000001020304000000000000000052
:104460000000000000000000010203040607080924
:04447000AAAAAAAAA0
:0444740091010008AA
:044478000000000040
:040000050800086186
:00000001FF
